{
  "contractName": "Boat",
  "abi": [
    {
      "constant": false,
      "inputs": [
        {
          "name": "uuid",
          "type": "string"
        },
        {
          "name": "title",
          "type": "string"
        }
      ],
      "name": "create",
      "outputs": [
        {
          "name": "",
          "type": "string"
        }
      ],
      "payable": false,
      "stateMutability": "nonpayable",
      "type": "function"
    },
    {
      "constant": false,
      "inputs": [],
      "name": "count",
      "outputs": [
        {
          "name": "",
          "type": "uint256"
        }
      ],
      "payable": false,
      "stateMutability": "nonpayable",
      "type": "function"
    },
    {
      "constant": true,
      "inputs": [
        {
          "name": "uuid",
          "type": "string"
        }
      ],
      "name": "get",
      "outputs": [
        {
          "name": "",
          "type": "string"
        }
      ],
      "payable": false,
      "stateMutability": "view",
      "type": "function"
    },
    {
      "constant": false,
      "inputs": [
        {
          "name": "uuid",
          "type": "string"
        },
        {
          "components": [
            {
              "name": "title",
              "type": "string"
            },
            {
              "name": "archived",
              "type": "bool"
            },
            {
              "name": "index",
              "type": "uint256"
            }
          ],
          "name": "input",
          "type": "tuple"
        }
      ],
      "name": "update",
      "outputs": [],
      "payable": false,
      "stateMutability": "nonpayable",
      "type": "function"
    },
    {
      "constant": false,
      "inputs": [
        {
          "name": "uuid",
          "type": "string"
        }
      ],
      "name": "del",
      "outputs": [],
      "payable": false,
      "stateMutability": "nonpayable",
      "type": "function"
    },
    {
      "constant": false,
      "inputs": [
        {
          "name": "uuid",
          "type": "string"
        }
      ],
      "name": "undel",
      "outputs": [],
      "payable": false,
      "stateMutability": "nonpayable",
      "type": "function"
    },
    {
      "constant": false,
      "inputs": [
        {
          "name": "submission",
          "type": "string"
        }
      ],
      "name": "submit",
      "outputs": [],
      "payable": false,
      "stateMutability": "nonpayable",
      "type": "function"
    }
  ],
  "bytecode": "0x6060604052341561000f57600080fd5b610bce8061001e6000396000f300606060405260043610610083576000357c0100000000000000000000000000000000000000000000000000000000900463ffffffff16806306661abd146100885780630bca089a146100b1578063198e2b8a146100d3578063693ec85e146101095780637078a9431461013f578063c0056b6114610161578063d99a8dc314610183575b600080fd5b341561009357600080fd5b61009b6101a5565b6040516100a89190610a5b565b60405180910390f35b34156100bc57600080fd5b6100d160046100cc903690610893565b6101b2565b005b34156100de57600080fd5b6100f360046100ee9036906108e6565b610241565b6040516101009190610a39565b60405180910390f35b341561011457600080fd5b6101296004610124903690610893565b610382565b6040516101369190610a39565b60405180910390f35b341561014a57600080fd5b61015f600461015a903690610893565b610498565b005b341561016c57600080fd5b610181600461017c90369061096d565b610527565b005b341561018e57600080fd5b6101a3600461019e903690610893565b6105b7565b005b6000600280549050905090565b600080826040518082805190602001908083835b6020831015156101eb57805182526020820191506020810190506020830392506101c6565b6001836020036101000a0380198251168184511680821785525050505050509050019150509081526020016040518091039020905060018160010160006101000a81548160ff0219169083151502179055505050565b6102496105ba565b816000846040518082805190602001908083835b602083101515610282578051825260208201915060208101905060208303925061025d565b6001836020036101000a038019825116818451168082178552505050505050905001915050908152602001604051809103902060000190805190602001906102cb9291906105ce565b506001600280548060010182816102e2919061064e565b9160005260206000209001600086909190915090805190602001906103089291906105ce565b50036000846040518082805190602001908083835b602083101515610342578051825260208201915060208101905060208303925061031d565b6001836020036101000a03801982511681845116808217855250505050505090500191505090815260200160405180910390206002018190555092915050565b61038a6105ba565b6000826040518082805190602001908083835b6020831015156103c2578051825260208201915060208101905060208303925061039d565b6001836020036101000a03801982511681845116808217855250505050505090500191505090815260200160405180910390206000018054600181600116156101000203166002900480601f01602080910402602001604051908101604052809291908181526020018280546001816001161561010002031660029004801561048c5780601f106104615761010080835404028352916020019161048c565b820191906000526020600020905b81548152906001019060200180831161046f57829003601f168201915b50505050509050919050565b600080826040518082805190602001908083835b6020831015156104d157805182526020820191506020810190506020830392506104ac565b6001836020036101000a0380198251168184511680821785525050505050509050019150509081526020016040518091039020905060008160010160006101000a81548160ff0219169083151502179055505050565b600080836040518082805190602001908083835b602083101515610560578051825260208201915060208101905060208303925061053b565b6001836020036101000a0380198251168184511680821785525050505050509050019150509081526020016040518091039020905081600001518160000190805190602001906105b19291906105ce565b50505050565b50565b602060405190810160405280600081525090565b828054600181600116156101000203166002900490600052602060002090601f016020900481019282601f1061060f57805160ff191683800117855561063d565b8280016001018555821561063d579182015b8281111561063c578251825591602001919060010190610621565b5b50905061064a919061067a565b5090565b81548183558181151161067557818360005260206000209182019101610674919061069f565b5b505050565b61069c91905b80821115610698576000816000905550600101610680565b5090565b90565b6106c891905b808211156106c457600081816106bb91906106cb565b506001016106a5565b5090565b90565b50805460018160011615610100020316600290046000825580601f106106f15750610710565b601f01602090049060005260206000209081019061070f919061067a565b5b50565b600061071f8235610b2b565b905092915050565b600082601f8301126000811461073c57610741565b600080fd5b50813561075561075082610aac565b610a76565b9150808252602083016020830185838301116001811461077457610779565b600080fd5b50610785838284610b41565b50505092915050565b600082601f830112600081146107a3576107a8565b600080fd5b5081356107bc6107b782610ae1565b610a76565b915080825260208301602083018583830111600181146107db576107e0565b600080fd5b506107ec838284610b41565b50505092915050565b60006060828403126001811461080a5761080f565b600080fd5b5061081a6060610a76565b9050600082013567ffffffffffffffff8111600181146108395761083e565b600080fd5b5061084b84828501610727565b600083015250602061085f84828501610713565b60208301525060406108738482850161087f565b60408301525092915050565b600061088b8235610b37565b905092915050565b6000602082840312600181146108a8576108ad565b600080fd5b50600082013567ffffffffffffffff8111600181146108cb576108d0565b600080fd5b506108dd8482850161078e565b91505092915050565b600080604083850312600181146108fc57610901565b600080fd5b50600083013567ffffffffffffffff81116001811461091f57610924565b600080fd5b506109318582860161078e565b925050602083013567ffffffffffffffff81116001811461095157610956565b600080fd5b506109638582860161078e565b9150509250929050565b6000806040838503126001811461098357610988565b600080fd5b50600083013567ffffffffffffffff8111600181146109a6576109ab565b600080fd5b506109b88582860161078e565b925050602083013567ffffffffffffffff8111600181146109d8576109dd565b600080fd5b506109ea858286016107f5565b9150509250929050565b60006109ff82610b16565b808452610a13816020860160208601610b50565b610a1c81610b83565b602085010191505092915050565b610a3381610b21565b82525050565b60006020820190508181036000830152610a5381846109f4565b905092915050565b6000602082019050610a706000830184610a2a565b92915050565b6000604051905081810181811067ffffffffffffffff82111760018114610a9c57610aa1565b600080fd5b508060405250919050565b600067ffffffffffffffff821160018114610ac657610acb565b600080fd5b50601f19601f8301169050602081019050919050565b600067ffffffffffffffff821160018114610afb57610b00565b600080fd5b50601f19601f8301169050602081019050919050565b600081519050919050565b6000819050919050565b60008115159050919050565b6000819050919050565b82818337600083830152505050565b60005b83811015610b6e578082015181840152602081019050610b53565b83811115610b7d576000848401525b50505050565b6000601f19601f83011690509190505600a265627a7a723058205519eae73900b71aef6e5d6135955b09df8ecb0830d18a24df1935297f82538d6c6578706572696d656e74616cf50037",
  "source": "pragma solidity ^0.4.18;\npragma experimental ABIEncoderV2;\n\ncontract Boat {\n\t\n\tmapping(string => Thread) private threads;\n\tstring[] private threadHashMap;\n\tstring[] private threadIndex;\n\n\tstruct Thread {\n\t\tstring title;\n\t\tbool archived;\n\t\tuint index;\n\t}\n\n\tfunction create(string uuid, string title) public returns (string) {\n\t\tthreads[uuid].title = title;\n\t\tthreads[uuid].index = threadIndex.push(uuid) - 1;\n\t\t\n\t}\n\n\tfunction count() returns (uint) {\n\t\treturn threadIndex.length;\n\t}\n\n\tfunction get(string uuid) constant returns (string) {\n\t\treturn threads[uuid].title;\n\t}\n\n\tfunction update(string uuid, Thread input) {\n\t\tvar thisThread = threads[uuid];\n\t\tthisThread.title = input.title;\n\t}\n\n\tfunction del(string uuid) {\n\t\tvar thisThread = threads[uuid];\n\t\tthisThread.archived = true;\n\t}\n\n\tfunction undel(string uuid) {\n\t\tvar thisThread = threads[uuid];\n\t\tthisThread.archived = false;\n\t}\n\n\tfunction submit(string submission) public {\n\t\t// submissions.push(submission);\n\t}\n\n}\n",
  "sourcePath": "/Users/nii236/git/boat/contracts/Boat.sol",
  "compiler": {
    "name": "solc",
    "version": "0.4.19+commit.c4cbbb05.Emscripten.clang"
  },
  "schemaVersion": "1.0.1",
  "updatedAt": "2018-02-08T14:58:24.493Z"
}